S01B00002E2F44656275672F6173636969646973706C61792E73313967
S315200000000248854600F004F8FEE7C04600C00120FD
S31520000010B0B58CB000AF164B180000F0C5F800F054
S3152000002005FA0121012000F018FA18203B18114A80
S3152000003032CA32C312CA12C31188198092789A70B2
S315200000403B000D4A32CA32C332CA32C33B181800AB
S3152000005000F03AFA0221012000F0FFF93B001800D7
S3152000006000F032FA00231800BD460CB0B0BDC046E1
S3152000007000100240F00400200805002080B500AFE3
S315200000800C4B00221A600B4B29225A60094B002286
S315200000909A60084B05221A60C046064B1A688023D0
S315200000A05B021340F9D0034B00221A60C046BD46BE
S315200000B080BDC04610E000E080B500AF0C4B0022AA
S315200000C01A600B4B53225A60094B00229A60084B48
S315200000D005221A60C046064B1A6880235B0213402D
S315200000E0F9D0034B00221A60C046BD4680BDC046EB
S315200000F010E000E080B582B000AF786003E0FFF743
S31520000100DBFFFFF7D9FF7B685A1E7A60002BF6D1FA
S31520000110C046BD4602B080BD80B582B000AF7860D3
S315200001207A6813005B019B1A9B009B18DB00180062
S31520000130FFF7E0FFC046BD4602B080BD80B582B065
S3152000014000AF786039607B683A681A60C046BD4661
S3152000015002B080BD80B584B000AF78600800110081
S31520000160FB1C021C1A70BB1C0A1C1A700023FB60A5
S31520000170FB1C1B78002B03D0FB68094A1343FB604A
S31520000180BB1C1B78002B03D0FB68064A1343FB607D
S315200001907B68FA681A60C046BD4604B080BDC0467A
S315200001A0000055555555000080B582B000AF7860E7
S315200001B07B68034A1A60C046BD4602B080BDC04671
S315200001C05555555580B582B000AF78607B680022C2
S315200001D01A60C046BD4602B080BD80B500AF034B55
S315200001E018221A60C046BD4680BDC046303802403F
S315200001F080B584B000AF0200FB1D1A700B4A0F2198
S315200002007B18127D1A70FA1D7B1812781B781343FF
S31520000210DAB208007B1804210A431A70034A3B18F5
S315200002201B781375C046BD4604B080BD0010024041
S3152000023080B584B000AF0200FB1D1A700D4A0F2155
S315200002407B18127D1A70FB1D1B785BB2DB435BB2F9
S31520000250042213435BB27A18127852B213405AB270
S315200002607B181A70034A7B181B781375C046BD4647
S3152000027004B080BD0010024080B582B000AF0200FD
S31520000280FB1D1A704020FFF7B3FF064AFB1D1B78A3
S3152000029053754020FFF7CCFFFFF7F0FEC046BD4662
S315200002A002B080BD0010024080B582B000AF402071
S315200002B0FFF79EFFFFF7E2FEFFF7E0FE064AFB1D73
S315200002C0527C1A704020FFF7B3FFFB1D1B781800E5
S315200002D0BD4602B080BDC0460010024080B582B047
S315200002E000AF0200FB1D1A700320FFF7A1FFFB1DC4
S315200002F01B781800FFF7C0FFC046BD4602B080BD80
S3152000030080B582B000AF0200FB1D1A700120FFF7F6
S315200003106FFF0220FFF78CFFFB1D1B781800FFF7ED
S31520000320ABFFC046BD4602B080BD90B583B000AFDE
S315200003300B4B0C4A1A600120FFF77AFF0220FFF7C9
S3152000034057FFFC1DFFF7B0FF03002370044B064A3E
S315200003501A60FB1D1B781800BD4603B090BDC04631
S3152000036000100240555500005555555590B583B09F
S3152000037000AF0B4B0B4A1A600120FFF739FF022012
S31520000380FFF736FFFC1DFFF78FFF03002370044B9A
S31520000390054A1A60FB1D1B781800BD4603B090BDA8
S315200003A000100240555500005555555580B582B070
S315200003B000AF02003960FB1D1A70C046FFF7B5FF7B
S315200003C003001A0080231340802BF7D00820FFF764
S315200003D091FEFB1D1B781800FFF780FF3B68180075
S315200003E0FFF788FEC046BD4602B080BD80B582B00C
S315200003F000AF02003960FB1D1A70C046FFF795FF5B
S3152000040003001A0080231340802BF7D00820FFF723
S3152000041071FEFB1D1B781800FFF772FF3B68180062
S31520000420FFF768FEC046BD4602B080BD80B500AF6E
S31520000430FA23DB0019000120FFF7B8FF2821382016
S31520000440FFF7B4FF28210E20FFF7B0FF2821062052
S31520000450FFF7ACFFC046BD4680BD80B584B000AF77
S315200004600200FB1D1A70BB1D0A1C1A700F217B1877
S31520000470FA1D1278013A1A70BB1D1B78012B04D97C
S315200004807B187A18127840321A700F23FB181B78C3
S31520000490802252421343DBB228211800FFF786FF41
S315200004A0C046BD4604B080BD80B582B000AF020014
S315200004B0FB1D1A70FB1D1B782B211800FFF796FFDA
S315200004C0C046BD4602B080BD80B582B000AF786020
S315200004D006E07B685A1C7A601B781800FFF7E4FF59
S315200004E07B681B78002BF4D1C046BD4602B080BD88
S315200004F049276D2061206361742C2061206B69740B
S315200005007479206361740000616E642069206461DF
S315200005106E63652064616E63652064616E63650049
S70520000000DA
