S01700002E2F52656C656173652F6B65797061642E73313912
S3152000000008009FE500D0A0E1770000EBFEFFFFEAA5
S3152000001000C00120016070474B425941054B4942BF
S315200000201940054B9C466144002A01D0034B1943D5
S31520000030016070470000ABAA0000555555550000D9
S31520000040014B03607047C046555555550023036044
S315200000507047C0461822014B1A607047303802405C
S3152000006070B5002913D1FF23AA26AA250C4C0F31DF
S315200000701B02F601026822403243026082881A403F
S315200000800A438280C36823402B43C36070BDF0219E
S31520000090AA25AA260901FF232D04F605014CE9E726
S315200000A00000FFFFFFFF000008239340DBB200297A
S315200000B001D0437570470375FCE7C04600290AD076
S315200000C00F23427C13400020002B03D0013040B286
S315200000D05B08FBD170470F23027C1340F3E7C04631
S315200000E0F0B585B06A4614000B4B0138E0CBE0C46E
S315200000F01B682360C3B2032B0AD84B1EDBB2032B2B
S3152000010006D880001218012052184042105600E0EE
S31520000110002005B0F0BDC046700200200123F0B5D6
S31520000120C64605009C4608270F2600B584B03B002E
S3152000013062469340DBB2002917D06B75687C30404D
S31520000140002807D00023DAB2531C5BB24008FAD14C
S31520000150002B0ED101239846C4446346052BE6D1D5
S31520000160102004B004BC9046F0BD2B75287C30408E
S31520000170E6E7E8464646074D92CD92C62D6835609D
S31520000180032AEED86446013CA4004444E318013B0C
S315200001901878E6E7700200204B1E9941034B49422E
S315200001A01940034B9C46614401607047ABAA5455E5
S315200001B055550000F0B585B06C468C4625000A4B97
S315200001C01033C2CBC2C561461B682B604B1E9941BA
S315200001D0411814310F2A03D8A35C0B7005B0F0BD6B
S315200001E000230B70FAE7C0467002002010402DE96C
S315200001F00010A0E330009FE5150000EB0110A0E3FE
S3152000020024009FE50C0000EB1C409FE50110A0E3B5
S315200002100400A0E10B0000EB0010A0E30020A0E109
S315200002200400A0E1010000EBF7FFFFEA000C02400A
S3152000023000C09FE51CFF2FE1B501002000C09FE50F
S315200002401CFF2FE16100002000C09FE51CFF2FE16D
S315200002501D01002000C09FE51CFF2FE19901002011
S315200002600000000000000000000000000000000068
S315200002700102030A0405060B0708090C0E000F0DE0
S315200002803F065B4F666D7D077F6F777C395E7971A0
S70520000000DA
