S01D00002E2F44656275672F62617369635F696F5F6C616262312E7331390A
S315200000000248854600F030F8FEE7C04600C00120D1
S3152000001080B500AF044B18221A60044B044A1A60BC
S31520000020C046BD4680BDC04630380240000C024066
S315200000305555555580B500AF024B1B781800BD4667
S3152000004080BDC0461010024080B582B000AF0200CD
S31520000050FB1D1A70034AFB1D1B781370C046BD4654
S3152000006002B080BD140C024090B583B000AFFFF7FC
S31520000070CFFFFC1DFFF7DEFF03002370FB1D1B785F
S30D200000801800FFF7E1FFF4E789
S70520000000DA
