S01800002E2F44656275672F7573657344656C61792E733139BA
S315200000000248854600F004F8FEE7C04600C00120FD
S3152000001080B500AF084B180000F072F8064BFF229F
S315200000201A75012000F04CF8034B00221A750120A6
S3152000003000F046F8EEE7C046000C024000232921D6
S31520000040064A13605160802193600533136049028C
S3152000005013680B42FCD000231360704710E000E0C9
S3152000006000235321064A1360516080219360053393
S315200000701360490213680B42FCD0002313607047BB
S3152000008010E000E08022F0B5002400275326052545
S315200000900A4B800A52021F605E609F601D601968CD
S315200000A01142FCD01C601C605E609C601D6019685B
S315200000B01142FCD01C600138EDD2F0BD10E000E00A
S315200000C010B543011B1A9B001818C000FFF7DAFF72
S315200000D010BDC046016070474B425941054B49420D
S315200000E01940054B9C466144002A01D0034B194315
S315200000F0016070470000ABAA000055555555000019
S31520000100014B03607047C046555555550023036083
S315200001107047C0461822014B1A607047303802409B
S3152000012070B5002913D1FF23AA26AA250C4C0F311E
S315200001301B02F601026822403243026082881A407E
S315200001400A438280C36823402B43C36070BDF021DD
S31520000150AA25AA260901FF232D04F605014CE9E765
S315200001600000FFFFFFFF000008239340DBB20029B9
S3152000017001D0437570470375FCE7C04600290AD0B5
S315200001800F23427C13400020002B03D0013040B2C5
S315200001905B08FBD170470F23027C1340F3E7C04670
S315200001A0F0B585B06A4614000B4B0138E0CBE0C4AD
S315200001B01B682360C3B2032B0AD84B1EDBB2032B6A
S315200001C006D880001218012052184042105600E02E
S315200001D0002005B0F0BDC046AC0200200123F0B5DA
S315200001E0C64605009C4608270F2600B584B03B006E
S315200001F062469340DBB2002917D06B75687C30408D
S31520000200002807D00023DAB2531C5BB24008FAD18B
S31520000210002B0ED101239846C4446346052BE6D114
S31520000220102004B004BC9046F0BD2B75287C3040CD
S31520000230E6E7E8464646074D92CD92C62D683560DC
S31520000240032AEED86446013CA4004444E318013B4B
S315200002501878E6E7AC0200204B1E9941034B494231
S315200002601940034B9C46614401607047ABAA545524
S3152000027055550000F0B585B06C468C4625000A4BD6
S315200002801033C2CBC2C561461B682B604B1E9941F9
S31520000290411814310F2A03D8A35C0B7005B0F0BDAA
S315200002A000230B70FAE7C046AC0200200102030AC5
S315200002B00405060B0708090C0E000F0D3F065B4FC1
S311200002C0666D7D077F6F777C395E797153
S70520000000DA
