S01600002E2F44656275672F6C616262335F312E73313917
S315200000000248854600F004F8FEE7C04600C00120FD
S3152000001080B582B000AF284B180000F0E9FA00F056
S31520000020A5FAFB1D00221A7016E0FB1D1B78012283
S315200000300A21180000F0CAF9FB1D1B783F2B06D8B1
S31520000040FB1D1B78012219000A2000F0BFF9FB1DB9
S315200000501A78FB1D01321A70FB1D1B785BB2002B30
S31520000060E3DAFA239B00180000F0DAFBBB1D00221E
S315200000701A7016E0BB1D1B7800220A21180000F01A
S31520000080A5F9BB1D1B783F2B06D8BB1D1B7800226C
S3152000009019000A2000F09AF9BB1D1A78BB1D0132FF
S315200000A01A70BB1D1B785BB2002BE3DA0023180005
S315200000B0BD4602B080BDC0460010024080B584B067
S315200000C000AF0200FB1D1A700C4A0F217B18127D0F
S315200000D01A70FB1D1B785BB2042293435AB27B181D
S315200000E01B785BB213435AB27B181A70034A7B18EB
S315200000F01B781375C046BD4604B080BD0010024073
S3152000010080B584B000AF0200FB1D1A700C4A0F2187
S315200001107B18127D1A70FB1D1B78DB43DBB27A1825
S3152000012012781340DAB208007B1804218A431A7029
S31520000130034A3B181B781375C046BD4604B080BDE4
S315200001400010024080B582B000AF0200FB1D1A707D
S31520000150FB1D1B78182B1AD01DDC102B10D01ADC97
S31520000160002B02D0082B04D015E01820FFF7C8FF7B
S3152000017011E00820FFF7A2FF1020FFF7C1FF0AE0D9
S315200001801020FFF79BFF0820FFF7BAFF03E0182097
S31520000190FFF794FFC046C046BD4602B080BD80B57D
S315200001A082B000AF4020FFF7ABFF154B154A1A600F
S315200001B00220FFF783FF0120FFF7A2FF00F000FBDC
S315200001C04020FFF77BFF00F0FBFA0D4B5B7CDAB299
S315200001D0FB1D7F218A431A704020FFF791FF00F014
S315200001E0EFFAFB1D1B78002BEAD14020FFF766FFB4
S315200001F0034B054A1A60C046BD4602B080BDC046C4
S3152000020000100240555500005555555580B584B00F
S3152000021000AF0200FB1D1A704020FFF771FF1C4B38
S315200002201C4A1A600320FFF749FFFB1D1B781800A4
S31520000230FFF788FF00F0C4FA4020FFF73FFF00F0E9
S31520000240BFFA134A0F23FB18527C1A704020FFF77F
S3152000025057FF0F4B104A1A60FB1D1B7808221340CC
S3152000026004D00820FFF76EFFFFF799FFFB1D1B78D0
S315200002701022134004D00820FFF764FFFFF78FFFFA
S315200002800F23FB181B781800BD4604B080BDC0465E
S3152000029000100240555500005555555580B582B081
S315200002A000AF0200FB1D1A70BB1D0A1C1A701A4AE9
S315200002B0FB1D1B785375BB1D1B781800FFF742FFEB
S315200002C000F07EFA4020FFF7F9FE00F079FA402090
S315200002D0FFF716FFBB1D1B780822134004D0082009
S315200002E0FFF730FFFFF75BFFBB1D1B781022134083
S315200002F004D01020FFF726FFFFF751FF064B002200
S315200003005A754020FFF7DAFE0020FFF71BFFC04694
S31520000310BD4602B080BDC0460010024080B582B006
S3152000032000AF0200FB1D1A70BB1D0A1C1A7040206C
S31520000330FFF7E6FEBB1D1B781800FFF703FF03201F
S31520000340FFF7DEFEBB1D1A78FB1D1B781100180077
S31520000350FFF7A4FFC046BD4602B080BD80B582B07F
S3152000036000AF0200FB1D1A70BB1D0A1C1A7040202C
S31520000370FFF7C6FEBB1D1B781800FFF7E3FE022021
S31520000380FFF7BEFE0120FFF799FEBB1D1A78FB1D65
S315200003901B7811001800FFF781FFC046BD4602B04A
S315200003A080BD80B582B000AF0200FB1D1A70FB1D18
S315200003B01B781800FFF72AFFFB1D1B781800FFF794
S315200003C025FF03001800BD4602B080BDF0B585B0FC
S315200003D000AF040008001100FB1D221C1A70BB1D73
S315200003E0021C1A707B1D0A1C1A70BB1D1B78013B50
S315200003F0002B00DA0733DB101A000D23FB181A70C6
S31520000400BB1D1B78013B3E4A134004D5013B082205
S315200004105242134301331A00012393401A000F233B
S31520000420FB181A70FB1D1B78402B09D90E23FB18CD
S3152000043010221A70FB1DFA1D1278413A1A7008E034
S315200004400E23FB1808221A70FB1D1A78FB1D013A91
S315200004501A70FB1D1B7840221343DAB20E257B1936
S315200004601B7819001000FFF759FF0D23FB181B7886
S31520000470482252421343DAB27B191B781900100026
S31520000480FFF74CFF0C26BC197B191B781800FFF7C9
S3152000049088FF03002370FB1D1B7840221343DAB22A
S315200004A07B191B7819001000FFF738FF7B1D1B787E
S315200004B0002B08D00F22BB18B918BA190978127860
S315200004C00A431A700DE00F217B181B785BB2DB43C1
S315200004D05BB20C22BA18127852B213405AB27B1869
S315200004E01A700E23FB181A780F23FB181B7811009D
S315200004F01800FFF733FFC046BD4605B0F0BDC04625
S315200005000700008080B582B000AFFB1D00221A7064
S3152000051023E0FB1D1B78482252421343DBB21821ED
S315200005201800FFF7FBFE18214020FFF7F7FEBB1D42
S3152000053000221A7008E018210020FFF70FFFBB1DCC
S315200005401A78BB1D01321A70BB1D1B783F2BF2D9BE
S31520000550FB1D1A78FB1D01321A70FB1D1B78072B19
S31520000560D7D9C046C046BD4602B080BD80B500AFD3
S315200005704020FFF7A3FD0A2000F034F97820FFF78A
S31520000580BFFD1E2000F04CF92020FFF797FD182113
S315200005903E20FFF7C3FE18213F20FFF7BFFE18219C
S315200005A0C020FFF7BBFE18214020FFF7B7FE182119
S315200005B0B820FFF7B3FE0020FFF7C4FDC046BD46B6
S315200005C080BDC046016070474B425941054B4942A8
S315200005D01940054B9C466144002A01D0034B194320
S315200005E0016070470000ABAA000055555555000024
S315200005F0014B03607047C04655555555002303608F
S315200006007047C0461822014B1A60704730380240A6
S3152000061070B5002913D1FF23AA26AA250C4C0F3129
S315200006201B02F601026822403243026082881A4089
S315200006300A438280C36823402B43C36070BDF021E8
S31520000640AA25AA260901FF232D04F605014CE9E770
S315200006500000FFFFFFFF000008239340DBB20029C4
S3152000066001D0437570470375FCE7C04600290AD0C0
S315200006700F23427C13400020002B03D0013040B2D0
S315200006805B08FBD170470F23027C1340F3E7C0467B
S31520000690F0B585B06A4614000B4B0138E0CBE0C4B8
S315200006A01B682360C3B2032B0AD84B1EDBB2032B75
S315200006B006D880001218012052184042105600E039
S315200006C0002005B0F0BDC046340800200123F0B557
S315200006D0C64605009C4608270F2600B584B03B0079
S315200006E062469340DBB2002917D06B75687C304098
S315200006F0002807D00023DAB2531C5BB24008FAD197
S31520000700002B0ED101239846C4446346052BE6D11F
S31520000710102004B004BC9046F0BD2B75287C3040D8
S31520000720E6E7E8464646074D92CD92C62D683560E7
S31520000730032AEED86446013CA4004444E318013B56
S315200007401878E6E7340800204B1E9941034B4942AE
S315200007501940034B9C46614401607047ABAA54552F
S3152000076055550000F0B585B06C468C4625000A4BE1
S315200007701033C2CBC2C561461B682B604B1E994104
S31520000780411814310F2A03D8A35C0B7005B0F0BDB5
S3152000079000230B70FAE7C0463408002000232921E5
S315200007A0064A136051608021936005331360490225
S315200007B013680B42FCD000231360704710E000E062
S315200007C000235321064A136051608021936005332C
S315200007D01360490213680B42FCD000231360704754
S315200007E010E000E08022F0B50024002753260525DE
S315200007F00A4B800A52021F605E609F601D60196866
S315200008001142FCD01C601C605E609C601D601968F3
S315200008101142FCD01C600138EDD2F0BD10E000E0A2
S3152000082010B543011B1A9B001818C000FFF7DAFF0A
S3152000083010BDC0460102030A0405060B0708090C71
S315200008400E000F0D3F065B4F666D7D077F6F777C31
S30920000850395E7971FD
S70520000000DA
