S02000002E2F44656275672F666C6970666C6F705F6972715F6572696B2E73313950
S315200000000248854600F060F8FEE7C04600C00120A1
S3152000001080B500AF064B1B685A1C054B1A60054B72
S315200000201A68044B08210A431A60C046BD4680BDA3
S31520000030BC020020143C014080B500AF00F072F8ED
S31520000040174B184A1A60184B1A68174B17490A405B
S315200000501A60154B1A68144B8021C9010A431A608D
S31520000060134B1A68124B08210A431A60114B1A685F
S31520000070104B08218A431A600F4B1A680E4B082131
S315200000800A431A600D4B0E4A1A600E4B1A680D4B26
S31520000090802189000A431A60C046BD4680BDC046FD
S315200000A0000C02405555000008380140FF0FFFFFA5
S315200000B0003C01400C3C0140083C014064C001204A
S315200000C01100002000E100E080B500AFFFF7B4FF8B
S315200000D0024B1A68024BD2B21A75F9E7BC0200200D
S315200000E0000C0240016070474B425941054B494282
S315200000F01940054B9C466144002A01D0034B194305
S31520000100016070470000ABAA000055555555000008
S31520000110014B03607047C046555555550023036073
S315200001207047C0461822014B1A607047303802408B
S3152000013070B5002913D1FF23AA26AA250C4C0F310E
S315200001401B02F601026822403243026082881A406E
S315200001500A438280C36823402B43C36070BDF021CD
S31520000160AA25AA260901FF232D04F605014CE9E755
S315200001700000FFFFFFFF000008239340DBB20029A9
S3152000018001D0437570470375FCE7C04600290AD0A5
S315200001900F23427C13400020002B03D0013040B2B5
S315200001A05B08FBD170470F23027C1340F3E7C04660
S315200001B0F0B585B06A4614000B4B0138E0CBE0C49D
S315200001C01B682360C3B2032B0AD84B1EDBB2032B5A
S315200001D006D880001218012052184042105600E01E
S315200001E0002005B0F0BDC046C00200200123F0B5B6
S315200001F0C64605009C4608270F2600B584B03B005E
S3152000020062469340DBB2002917D06B75687C30407C
S31520000210002807D00023DAB2531C5BB24008FAD17B
S31520000220002B0ED101239846C4446346052BE6D104
S31520000230102004B004BC9046F0BD2B75287C3040BD
S31520000240E6E7E8464646074D92CD92C62D683560CC
S31520000250032AEED86446013CA4004444E318013B3B
S315200002601878E6E7C00200204B1E9941034B49420D
S315200002701940034B9C46614401607047ABAA545514
S3152000028055550000F0B585B06C468C4625000A4BC6
S315200002901033C2CBC2C561461B682B604B1E9941E9
S315200002A0411814310F2A03D8A35C0B7005B0F0BD9A
S315200002B000230B70FAE7C046C002002000000000B1
S315200002C00102030A0405060B0708090C0E000F0D90
S315200002D03F065B4F666D7D077F6F777C395E797150
S70520000000DA
