S01B00002E2F52656C656173652F6C6364646973706C61792E73313963
S3152000000008009FE500D0A0E1F70100EBFEFFFFEA24
S3152000001000C0012010209FE51430D2E5000083E1C6
S31520000020FB0000E21400C2E51EFF2FE10010024093
S3152000003004309FE51430D3E51EFF2FE10010024067
S3152000004010309FE51420D3E5FB0000E2020080E19A
S315200000501400C3E51EFF2FE10010024070402DE979
S3152000006074509FE50120A0E30500A0E10010A0E365
S315200000701430D5E5050200EB1430D5E5FB3003E25C
S31520000080023083E31430C5E50540A0E11430D5E500
S31520000090F50100EB1430D4E5FB3003E2403083E376
S315200000A01430C4E5F00100EB1430D4E5EE0100EB8A
S315200000B01130D4E5800013E3F5FFFF1A1430D4E5A0
S315200000C0FB3003E2403083E31430C4E508009FE5AB
S315200000D0EB0100EB7040BDE81EFF2FE1001002404F
S315200000E070402DE90050A0E1B0409FE50010A0E34C
S315200000F00400A0E10120A0E31430D4E5E30100EBE5
S315200001001430D4E5FB3003E2033083E31430C4E536
S315200001101420D4E50430C5E3023083E11430C4E56D
S31520000120D10100EB1430D4E5FB3003E2403083E309
S315200001301430C4E5CC0100EB1160D4E50400A0E145
S315200001401430D4E5CE0100EB080015E3FF6006E28B
S315200001500400001A100015E30800001A0600A0E1AA
S315200001607040BDE81EFF2FE11430D4E5083083E34C
S315200001701430C4E5B8FFFFEB100015E3F6FFFF0AC5
S3152000018018209FE51430D2E5083083E31430C2E509
S31520000190B1FFFFEB0600A0E17040BDE81EFF2FE196
S315200001A00010024070402DE90150A0E19C409FE5DF
S315200001B01500C4E51420D4E50430C1E3023083E100
S315200001C01430C4E5A80100EB1430D4E5FB3003E27B
S315200001D0403083E31430C4E5A30100EB080015E3A7
S315200001E01430D4E50D00001A100015E31100001A92
S315200001F00020A0E354309FE51520C3E51420D3E565
S31520000200FB2002E2402082E31420C3E51420D3E53C
S31520000210FF2002E21420C3E57040BDE81EFF2FE157
S315200002201430D4E5083083E31430C4E58AFFFFEBAD
S31520000230100015E3EDFFFF0A10209FE51430D2E5EC
S31520000240103083E31430C2E583FFFFEBE7FFFFEABC
S315200002500010024018309FE51420D3E514C0D3E5E2
S31520000260FB2001E20C2082E11420C3E51430D3E503
S31520000270CBFFFFEA0010024028309FE51420D3E58B
S3152000028014C0D3E5FB2001E20C2082E11420C3E553
S315200002901420D3E51420D3E5FB2002E2012082E3DB
S315200002A01420C3E5BEFFFFEA0010024010402DE9EE
S315200002B00040A0E189FFFFEB0400A0E11040BDE86B
S315200002C086FFFFEA70402DE90060A0E378509FE5A5
S315200002D00600E0E1470000E20000E0E11430D5E549
S315200002E01430D5E5183083E31430C5E5FF0000E26D
S315200002F01810A0E31430D5E5A9FFFFEB4000A0E3DA
S315200003001430D5E51430D5E5183083E31430C5E52F
S315200003101810A0E31430D5E50040A0E1A0FFFFEBC4
S315200003201810A0E30000A0E3D2FFFFEB013044E267
S31520000330FF4013E2F9FFFF1A016086E2080056E348
S31520000340E2FFFF1A7040BDE81EFF2FE100100240B9
S3152000035010402DE9E4409FE51430D4E5FB3003E25C
S31520000360403083E31430C4E50A00A0E3410100EBEA
S315200003701E00A0E31430D4E5380100EB1430D4E598
S31520000380FB3003E2203083E31430C4E51430D4E597
S315200003901430D4E5183083E31430C4E51810A0E3F4
S315200003A03E00A0E31430D4E57DFFFFEB1430D4E506
S315200003B01430D4E5183083E31430C4E51810A0E3D4
S315200003C03F00A0E31430D4E575FFFFEB1430D4E5ED
S315200003D01430D4E5183083E31430C4E51810A0E3B4
S315200003E0C000A0E31430D4E56DFFFFEB1430D4E554
S315200003F01430D4E5183083E31430C4E51810A0E394
S315200004004000A0E31430D4E565FFFFEB1430D4E5BB
S315200004101430D4E5183083E31430C4E51810A0E373
S31520000420B800A0E31430D4E55DFFFFEB1430D4E52B
S31520000430FF3003E21430C4E51040BDE81EFF2FE173
S315200004400010024010402DE908009FE50C0100EB4A
S315200004501040BDE81EFF2FE10010024001607047EA
S315200004604B425941054B49421940054B9C46614434
S31520000470002A01D0034B1943016070470000ABAA44
S315200004800000555555550000014B03607047C04686
S3152000049055555555002303607047C0461822014B19
S315200004A01A6070473038024070B5002913D1FF23F7
S315200004B0AA26AA250C4C0F311B02F60102682240FF
S315200004C03243026082881A400A438280C3682340EE
S315200004D02B43C36070BDF021AA25AA260901FF235C
S315200004E02D04F605014CE9E70000FFFFFFFF0000A1
S315200004F008239340DBB2002901D04375704703756A
S31520000500FCE7C04600290AD00F23427C1340002076
S31520000510002B03D0013040B25B08FBD170470F237C
S31520000520027C1340F3E7C046F0B585B06A46140056
S315200005300B4B0138E0CBE0C41B682360C3B2032B0E
S315200005400AD84B1EDBB2032B06D8800012180120D6
S3152000055052184042105600E0002005B0F0BDC046BB
S31520000560B00800200123F0B5C64605009C460827A2
S315200005700F2600B584B03B0062469340DBB20029CB
S3152000058017D06B75687C3040002807D00023DAB27C
S31520000590531C5BB24008FAD1002B0ED1012398469A
S315200005A0C4446346052BE6D1102004B004BC904613
S315200005B0F0BD2B75287C3040E6E7E8464646074DD9
S315200005C092CD92C62D683560032AEED86446013C4A
S315200005D0A4004444E318013B1878E6E7B00800205D
S315200005E04B1E9941034B49421940034B9C4661449B
S315200005F001607047ABAA545555550000F0B585B03B
S315200006006C468C4625000A4B1033C2CBC2C56146C8
S315200006101B682B604B1E9941411814310F2A03D8B1
S31520000620A35C0B7005B0F0BD00230B70FAE7C04643
S31520000630B008002000232921064A1360516080213A
S31520000640936005331360490213680B42FCD00023E4
S315200006501360704710E000E000235321064A136020
S3152000066051608021936005331360490213680B4261
S31520000670FCD000231360704710E000E0FA21F8B5A3
S31520000680890000F027F8802200240027532605251C
S315200006900A4B52021F605E609F601D6019681142FE
S315200006A0FCD01C601C605E609C601D601968114255
S315200006B0FCD01C600138EDD2F8BDC04610E000E049
S315200006C010B543011B1A9B001818C000FFF7D6FF70
S315200006D010BDC046012051E21EFF2F013600003A10
S315200006E0010050E12200009A020011E12300000AD5
S315200006F00E0211E38111A0010830A0030130A013DE
S31520000700010251E3000051310112A0310332A03120
S31520000710FAFFFF3A020151E3000051318110A03166
S315200007208330A031FAFFFF3A0020A0E3010050E118
S315200007300100402003208221A10050E1A100402099
S31520000740A3208221210150E1210140202321822161
S31520000750A10150E1A1014020A3218221000050E304
S315200007602332B0112112A011EFFFFF1A0200A0E1DF
S315200007701EFF2FE10100A0030000A0131EFF2FE1A2
S31520000780010851E32118A0211020A0230020A03326
S31520000790010C51E32114A02108208222100051E3EC
S315200007A02112A02104208222040051E30320828208
S315200007B0A12082903002A0E11EFF2FE1000050E32D
S315200007C00000E013070000EA000051E3FAFFFF0AE9
S315200007D003402DE9BEFFFFEB0640BDE8920003E093
S315200007E0031041E01EFF2FE11EFF2FE110402DE9EF
S315200007F060409FE50400A0E1210000EBD3FEFFEB63
S315200008001430D4E51430D4E5183083E31430C4E52D
S315200008101810A0E34A00A0E31430D4E560FEFFEBF5
S315200008201430D4E51430D4E5183083E31430C4E50D
S315200008301810A0E3B900A0E31430D4E558FEFFEB6E
S31520000840FF00A0E31810A0E38AFEFFEB0000A0E360
S315200008501040BDE81EFF2FE10010024000000000FE
S3152000086000C09FE51CFF2FE1C106002000C09FE5C8
S315200008701CFF2FE15906002000C09FE51CFF2FE139
S315200008807D06002000C09FE51CFF2FE18904002083
S3152000089000C09FE51CFF2FE161040020000000003E
S315200008A00000000000000000000000000000000022
S315200008B00102030A0405060B0708090C0E000F0D9A
S315200008C03F065B4F666D7D077F6F777C395E79715A
S70520000000DA
