S01900002E2F44656275672F7573657344656C6179322E73313987
S315200000000248854600F004F8FEE7C04600C00120FD
S3152000001080B582B000AF0F4B180000F033F8FB1DFF
S3152000002080221A700DE00B4AFB1D1B781375FB1DF1
S31520000030FA1D127852081A70FA235B00180000F095
S3152000004055F8FB1D1B78002BEDD100231800BD466B
S3152000005002B080BD000C0240016070474B425941FE
S31520000060054B49421940054B9C466144002A01D064
S31520000070034B1943016070470000ABAA0000555599
S3152000008055550000014B03607047C04655555555E0
S31520000090002303607047C0461822014B1A60704740
S315200000A03038024000232921064A136051608021FE
S315200000B0936005331360490213680B42FCD000237A
S315200000C01360704710E000E000235321064A1360B6
S315200000D051608021936005331360490213680B42F7
S315200000E0FCD000231360704710E000E0F0B5441EFA
S315200000F0002818D0802200200027532605250A4BE9
S3152000010052021F605E609F601D6019681142FCD01C
S31520000110186018605E6098601D6019681142FCD0F6
S315200001201860013CEDD2F0BD10E000E010B54301AF
S315200001301B1A9B001818C000FFF7D8FF10BDC04639
S70520000000DA
