S01900002E2F44656275672F6C6364646973706C61792E7331393F
S315200000000248854600F090FBFEE7C04600C001206E
S3152000001080B584B000AF0200FB1D1A700C4A0F2178
S315200000207B18127D1A70FB1D1B785BB2042293434A
S315200000305AB27B181B785BB213435AB27B181A70DC
S31520000040034A7B181B781375C046BD4604B080BD95
S315200000500010024080B584B000AF0200FB1D1A706C
S315200000600C4A0F217B18127D1A70FB1D1B78DB436F
S31520000070DBB27A1812781340DAB208007B18042112
S315200000808A431A70034A3B181B781375C046BD462F
S3152000009004B080BD0010024080B582B000AF0200DF
S315200000A0FB1D1A70FB1D1B78082B0CD002DC002BC5
S315200000B005D01AE0102B0DD0182B12D015E01820E1
S315200000C0FFF7C8FF11E00820FFF7A2FF1020FFF777
S315200000D0C1FF0AE01020FFF79BFF0820FFF7BAFFB9
S315200000E003E01820FFF794FFC046C046BD4602B085
S315200000F080BD80B582B000AF4020FFF7ABFF154B27
S31520000100154A1A600220FFF783FF0120FFF7A2FF9E
S3152000011000F02EFB4020FFF77BFF00F029FB0D4B64
S315200001205B7CDAB2FB1D7F218A431A704020FFF7E1
S3152000013091FF00F01DFBFB1D1B78002BEAD1402010
S31520000140FFF766FF034B054A1A60C046BD4602B05C
S3152000015080BDC046001002405555000055555555E6
S3152000016080B584B000AF0200FB1D1A704020FFF757
S3152000017071FF1C4B1C4A1A600320FFF749FFFB1D29
S315200001801B781800FFF788FF00F0F2FA4020FFF7EF
S315200001903FFF00F0EDFA134A0F23FB18527C1A702A
S315200001A04020FFF757FF0F4B104A1A60FB1D1B78A4
S315200001B00822134004D00820FFF76EFFFFF799FFAF
S315200001C0FB1D1B781022134004D00820FFF764FF84
S315200001D0FFF78FFF0F23FB181B781800BD4604B0CE
S315200001E080BDC04600100240555500005555555556
S315200001F080B582B000AF0200FB1D1A70BB1D0A1C21
S315200002001A701A4AFB1D1B785375BB1D1B781800E4
S31520000210FFF742FF00F0ACFA4020FFF7F9FE00F0AE
S31520000220A7FA4020FFF716FFBB1D1B7808221340B4
S3152000023004D00820FFF730FFFFF75BFFBB1D1B78BC
S315200002401022134004D01020FFF726FFFFF751FF9E
S31520000250064B00225A754020FFF7DAFE0020FFF7F2
S315200002601BFFC046BD4602B080BDC04600100240FE
S3152000027080B582B000AF0200FB1D1A70BB1D0A1CA0
S315200002801A704020FFF7E6FEBB1D1B781800FFF70B
S3152000029003FF0320FFF7DEFEBB1D1A78FB1D1B782C
S315200002A011001800FFF7A4FFC046BD4602B080BD6E
S315200002B080B582B000AF0200FB1D1A70BB1D0A1C60
S315200002C01A704020FFF7C6FEBB1D1B781800FFF7EB
S315200002D0E3FE0220FFF7BEFE0120FFF799FEBB1DBD
S315200002E01A78FB1D1B7811001800FFF781FFC04606
S315200002F0BD4602B080BD80B582B000AF0200FB1DB6
S315200003001A70FB1D1B781800FFF72AFFFB1D1B78B0
S315200003101800FFF725FF03001800BD4602B080BD78
S31520000320F0B585B000AF040008001100FB1D221CAB
S315200003301A70BB1D021C1A707B1D0A1C1A70BB1D6D
S315200003401B78013B002B00DA0733DB101A000D2344
S31520000350FB181A70BB1D1B78013B3E4A134004D57F
S31520000360013B08225242134301331A0001239340D2
S315200003701A000F23FB181A70FB1D1B78402B09D976
S315200003800E23FB1810221A70FB1DFA1D1278413A13
S315200003901A7008E00E23FB1808221A70FB1D1A7823
S315200003A0FB1D013A1A70FB1D1B7840221343DAB25B
S315200003B00E257B191B7819001000FFF759FF0D2316
S315200003C0FB181B78482252421343DAB27B191B785A
S315200003D019001000FFF74CFF0C26BC197B191B785F
S315200003E01800FFF788FF03002370FB1D1B784022AF
S315200003F01343DAB27B191B7819001000FFF738FF78
S315200004007B1D1B78002B08D00F22BB18B918BA19F0
S31520000410097812780A431A700DE00F217B181B7891
S315200004205BB2DB435BB20C22BA18127852B213408D
S315200004305AB27B181A700E23FB181A780F23FB1852
S315200004401B7811001800FFF733FFC046BD4605B0E4
S31520000450F0BDC0460700008080B582B000AFFB1D0E
S3152000046000221A7023E0FB1D1B78482252421343B8
S31520000470DBB218211800FFF7FBFE18214020FFF7FA
S31520000480F7FEBB1D00221A7008E018210020FFF796
S315200004900FFFBB1D1A78BB1D01321A70BB1D1B78BE
S315200004A03F2BF2D9FB1D1A78FB1D01321A70FB1D5A
S315200004B01B78072BD7D9C046BD4602B080BD80B574
S315200004C000AF4020FFF7A4FD0A2000F063F9782052
S315200004D0FFF7C0FD1E2000F07BF92020FFF798FDD6
S315200004E018213E20FFF7C4FE18213F20FFF7C0FE4B
S315200004F01821C020FFF7BCFE18214020FFF7B8FEC8
S315200005001821B820FFF7B4FE0020FFF7C5FDC0462E
S31520000510BD4680BDF0B587B000AF78607B681B68AC
S315200005203B611723FB1800221A7033E017243B196E
S315200005301A780F203B18396952008A18033212782C
S315200005401A703B191A780E257B19396952008A18B8
S31520000550043212781A700D217B187A6892791A70F3
S315200005600C26BB197A68D2791A703A187B18127839
S315200005701B78D318D8B27A19BB1912781B78D318DE
S31520000580DBB201221900FFF7CBFE3B191A783B1983
S3152000059001321A703B691B781722BA1812789A42D0
S315200005A0C4D3C046BD4607B0F0BDF0B587B000AF96
S315200005B078607B681B683B611723FB1800221A7042
S315200005C033E017243B191A780F203B18396952005B
S315200005D08A18033212781A703B191A780E257B195D
S315200005E0396952008A18043212781A700D217B1844
S315200005F07A6892791A700C26BB197A68D2791A70A1
S315200006003A187B1812781B78D318D8B27A19BB19E6
S3152000061012781B78D318DBB200221900FFF780FE70
S315200006203B191A783B1901321A703B691B7817223D
S31520000630BA1812789A42C4D3C046BD4607B0F0BD58
S3152000064080B582B000AF78603B0019807B683A00A5
S3152000065012889A80C046BD4602B080BD80B584B05F
S3152000066000AF78607B6899797B681A790E203B18F1
S315200006708A181A707B68D9797B685A790D23FB18FA
S315200006808A181A700F23FB1801221A703B181B7840
S31520000690002B03D03B181B78802B09D97B681B794C
S315200006A05B42DAB27B681A710F23FB1800221A709C
S315200006B00D22BB181B78002B03D0BB181B78402BB0
S315200006C009D97B685B795B42DAB27B685A710F2362
S315200006D0FB1800221A700F23FB181B78002B13D04F
S315200006E07B68DB687A68100098477B680E22BA1808
S315200006F012789A717B680D22BA181278DA717B68A3
S315200007009B687A6810009847C046BD4604B080BDF5
S3152000071080B500AF024B034A1A60C046BD4680BD75
S31520000720001002405555555580B500AFFFF7F0FF34
S31520000730FFF7C5FE044B1B69034A10009847642047
S3152000074000F046F8F6E7C046E407002000232921FA
S31520000750064A136051608021936005331360490275
S3152000076013680B42FCD000231360704710E000E0B2
S3152000077000235321064A136051608021936005337C
S315200007801360490213680B42FCD0002313607047A4
S3152000079010E000E08022F0B500240027532605252E
S315200007A00A4B800A52021F605E609F601D601968B6
S315200007B01142FCD01C601C605E609C601D60196844
S315200007C01142FCD01C600138EDD2F0BD10E000E0F3
S315200007D010B543011B1A9B001818C000FFF7DAFF5B
S315200007E010BDC046FC0700200404010115050020A9
S315200007F0AB0500205D060020410600200C0A0A00F9
S3152000080001000201000101010201030200020102AE
S3152000081002020303010302000000000000000000A2
S30D200008200000000000000000AA
S70520000000DA
