S01400002E2F44656275672F64656C61792E7331395E
S315200000000248854600F03CF8FEE7C04600C00120C5
S3152000001080B500AF0C4B00221A600C4B29221A60C7
S315200000200B4B00221A60084B05221A60C046064B6D
S315200000301A6880235B021340F9D0034B00221A6012
S31520000040C046BD4680BDC04610E000E014E000E09A
S3152000005018E000E080B582B000AF786007E0FFF7D7
S31520000060D7FFFFF7D5FFFFF7D3FFFFF7D1FF7B6859
S315200000705A1E7A60002BF2D1C046BD4602B080BD22
S3152000008080B582B000AF124B124A1A60124B1B7811
S31520000090DBB27B607B68812B14D07A6813009B00CF
S315200000A09B185B007B600D4BFF221A707B68180043
S315200000B0FFF7D0FF094B00221A707B681800FFF764
S315200000C0C9FFE3E7C04600231800BD4602B080BD45
S315200000D0000C02405555555510100240140C024094
S70520000000DA
