S01400002E2F44656275672F64656C61792E7331395E
S315200000000248854600F05AF8FEE7C04600C00120A7
S3152000001080B500AF0C4B00221A600C4B29221A60C7
S315200000200B4B00221A60084B05221A60C046064B6D
S315200000301A6880235B021340F9D0034B00221A6012
S31520000040C046BD4680BDC04610E000E014E000E09A
S3152000005018E000E080B582B000AF786007E0FFF7D7
S31520000060D7FFFFF7D5FFFFF7D3FFFFF7D1FF7B6859
S315200000705A1E7A60002BF2D1C046BD4602B080BD22
S3152000008080B582B000AF78607A6813005B019B1A56
S315200000909B009B18DB001800FFF7DCFFC046BD461F
S315200000A002B080BD80B500AF024B034A1A60C0463D
S315200000B0BD4680BD000C02405555555580B500AF54
S315200000C0FFF7F0FF084BFF221A70FA235B00180097
S315200000D0FFF7C0FF044B00221A70FA235B001800BA
S311200000E0FFF7B8FFEEE7C046140C024004
S70520000000DA
