S01B00002E2F52656C656173652F7573657344656C6179322E733139AB
S3152000000008009FE500D0A0E13B0000EBFEFFFFEAE1
S3152000001000C00120016070474B425941054B4942BF
S315200000201940054B9C466144002A01D0034B1943D5
S31520000030016070470000ABAA0000555555550000D9
S31520000040014B03607047C046555555550023036044
S315200000507047C0461822014B1A607047303802405C
S3152000006000232921064A13605160802193600533BD
S315200000701360490213680B42FCD0002313607047BB
S3152000008010E000E000235321064A136051608021CE
S31520000090936005331360490213680B42FCD000239A
S315200000A01360704710E000E0F0B5441E002818D019
S315200000B0802200200027532605250A4B52021F6066
S315200000C05E609F601D6019681142FCD01860186040
S315200000D05E6098601D6019681142FCD01860013C72
S315200000E0EDD2F0BD10E000E010B543011B1A9B00D5
S315200000F01818C000FFF7D8FF10BDC04670402DE984
S3152000010030009FE5100000EB0840A0E38050A0E3FC
S3152000011020609FE51450C6E57D0FA0E3070000EBA5
S31520000120014054E2A550A0E1F9FFFF1A0400A0E126
S315200001307040BDE81EFF2FE1000C024000000000C9
S3152000014000C09FE51CFF2FE1A900002000C09FE50D
S315200001501CFF2FE1410000200000000000000000ED
S70520000000DA
